Microchip MPLAB XC8 Compiler V2.46

Linker command line:

-W-3 --edf=C:\Tools\Microchip\xc8\v2.46\pic\dat\20240104201356_en.msgs -cn \
  -h+dist/default/production\PIC16F887_EUSART.X.production.sym \
  --cmf=dist/default/production\PIC16F887_EUSART.X.production.cmf -z \
  -Q16F887 -oC:\Users\Ruben\AppData\Local\Temp\xcAs76g.\driver_tmp_3.o \
  --defsym=__MPLAB_BUILD=1 --fixupoverflow=error \
  -Mdist/default/production/PIC16F887_EUSART.X.production.map \
  --md=C:\Users\Ruben\AppData\Local\Temp\xcAs76g.\driver_tmp_0.dat -E1 \
  -ver=XC8 Compiler --acfsm=1493 -ACODE=00h-07FFhx4 -ASTRCODE=00h-01FFFh \
  -ASTRING=00h-0FFhx32 -ACONST=00h-0FFhx32 -AENTRY=00h-0FFhx32 \
  -ACOMMON=070h-07Fh -ABANK0=020h-06Fh -ABANK1=0A0h-0EFh \
  -ABANK2=0110h-016Fh -ABANK3=0190h-01EFh \
  -ARAM=020h-06Fh,0A0h-0EFh,0110h-016Fh,0190h-01EFh \
  -AABS1=020h-07Fh,0A0h-0EFh,0110h-016Fh,0190h-01EFh -ASFR0=00h-01Fh \
  -ASFR1=080h-09Fh -ASFR2=0100h-010Fh -ASFR3=0180h-018Fh \
  -ACONFIG=02007h-02008h -DCONFIG=2 -AIDLOC=02000h-02003h -DIDLOC=2 \
  -AEEDATA=00h-0FFh/02100h -peeprom_data=EEDATA -DEEDATA=2 -DCODE=2 \
  -DSTRCODE=2 -DSTRING=2 -DCONST=2 -DENTRY=2 \
  -preset_vec=00h,intentry,sivt,init,end_init -ppowerup=CODE -pcinit=CODE \
  -pfunctab=ENTRY -k \
  C:\Users\Ruben\AppData\Local\Temp\xcAs76g.\driver_tmp_17.o \
  dist/default/production\PIC16F887_EUSART.X.production.o 

Object code version is 3.11

Machine type is 16F887



                Name                               Link     Load   Length Selector   Space Scale
C:\Users\Ruben\AppData\Local\Temp\xcAs76g.\driver_tmp_17.o
                end_init                              0        0        3        0       0
                config                             2007     2007        2        0       4
dist/default/production\PIC16F887_EUSART.X.production.o
                cinit                               7D6      7D6       2A      FAC       0
                config                             2007     2007        2        0       4
                text25                              D02      D02       11     1A04       0
                text24                              D5B      D5B       17     1AB6       0
                text23                              D35      D35       13     1A6A       0
                text22                              D89      D89       1D     1B12       0
                text21                              D13      D13       11     1A26       0
                text20                                9        9        1       12       0
                text19                              E9E      E9E       58     1D3C       0
                text18                              105      105       76      20A       0
                text17                               9E       9E       67      13C       0
                text16                              F4E      F4E       59     1E9C       0
                text15                              D24      D24       11     1A48       0
                text14                              E30      E30       2A     1C60       0
                text13                              D72      D72       17     1AE4       0
                text12                               44       44       5A       88       0
                text11                              3DC      3DC       FC      7B8       0
                text10                              221      221       C4      442       0
                text9                               DE2      DE2       25     1BC4       0
                text8                               EF6      EF6       58     1DEC       0
                text7                               E5A      E5A       44     1CB4       0
                text6                                 A        A       3A       14       0
                text5                               17B      17B       A6      2F6       0
                text4                               2E5      2E5       F7      5CA       0
                text3                               4D8      4D8      2FE      9B0       0
                text2                               E07      E07       29     1C0E       0
                text1                               DC3      DC3       1F     1B86       0
                maintext                            FA7      FA7       59     1F4E       0
                cstackBANK0                          20       20       3C       20       1
                cstackCOMMON                         70       70        E       70       1
                cstackBANK1                          C1       C1       1D       A0       1
                clrtext                             CFA      CFA        8     19F4       0
                inittext                            D48      D48       13     1A90       0
                dataBANK3                           1C2      1C2       1D      190       1
                bssBANK3                            190      190       32      190       1
                bssBANK1                             A0       A0       21       A0       1
                bssBANK0                             5C       5C        7       20       1
                strings                             800      800       1A     1000       0
                idataBANK3                          DA6      DA6       1D     1B4C       0

TOTAL           Name                               Link     Load   Length     Space
        CLASS   CODE           
                end_init                              0        0        3         0
                cinit                               7D6      7D6       2A         0
                text25                              D02      D02       11         0
                text24                              D5B      D5B       17         0
                text23                              D35      D35       13         0
                text22                              D89      D89       1D         0
                text21                              D13      D13       11         0
                text20                                9        9        1         0
                text19                              E9E      E9E       58         0
                text18                              105      105       76         0
                text17                               9E       9E       67         0
                text16                              F4E      F4E       59         0
                text15                              D24      D24       11         0
                text14                              E30      E30       2A         0
                text13                              D72      D72       17         0
                text12                               44       44       5A         0
                text11                              3DC      3DC       FC         0
                text10                              221      221       C4         0
                text9                               DE2      DE2       25         0
                text8                               EF6      EF6       58         0
                text7                               E5A      E5A       44         0
                text6                                 A        A       3A         0
                text5                               17B      17B       A6         0
                text4                               2E5      2E5       F7         0
                text3                               4D8      4D8      2FE         0
                text2                               E07      E07       29         0
                text1                               DC3      DC3       1F         0
                maintext                            FA7      FA7       59         0
                clrtext                             CFA      CFA        8         0
                inittext                            D48      D48       13         0
                idataBANK3                          DA6      DA6       1D         0

        CLASS   STRCODE        

        CLASS   STRING         
                strings                             800      800       1A         0

        CLASS   CONST          

        CLASS   ENTRY          

        CLASS   COMMON         
                cstackCOMMON                         70       70        E         1

        CLASS   BANK0          
                cstackBANK0                          20       20       3C         1
                bssBANK0                             5C       5C        7         1

        CLASS   BANK1          
                cstackBANK1                          C1       C1       1D         1
                bssBANK1                             A0       A0       21         1

        CLASS   BANK2          

        CLASS   BANK3          
                dataBANK3                           1C2      1C2       1D         1
                bssBANK3                            190      190       32         1

        CLASS   RAM            

        CLASS   ABS1           
                abs_s1                               7E       7E        2         1

        CLASS   SFR0           

        CLASS   SFR1           

        CLASS   SFR2           

        CLASS   SFR3           

        CLASS   CONFIG         
                config                             2007     2007        2         4

        CLASS   IDLOC          

        CLASS   EEDATA         

        CLASS   HEAP           

        CLASS   STACK          



SEGMENTS        Name                           Load    Length   Top    Selector   Space  Class     Delta

                reset_vec                      000000  000003  000003         0       0  CODE        2
                text20                         000009  000001  00000A        12       0  CODE        2
                text6                          00000A  00003A  000044        14       0  CODE        2
                cstackBANK0                    000020  000043  000063        20       1  BANK0       1
                cstackCOMMON                   000070  00000E  00007E        70       1  COMMON      1
                text12                         000044  00005A  00009E        88       0  CODE        2
                bssBANK1                       0000A0  00003E  0000DE        A0       1  BANK1       1
                text17                         00009E  000067  000105       13C       0  CODE        2
                bssBANK3                       000190  00004F  0001DF       190       1  BANK3       1
                text18                         000105  000076  00017B       20A       0  CODE        2
                text5                          00017B  0000A6  000221       2F6       0  CODE        2
                text10                         000221  0000C4  0002E5       442       0  CODE        2
                text4                          0002E5  0000F7  0003DC       5CA       0  CODE        2
                text11                         0003DC  0000FC  0004D8       7B8       0  CODE        2
                text3                          0004D8  0002FE  0007D6       9B0       0  CODE        2
                cinit                          0007D6  00002A  000800       FAC       0  CODE        2
                strings                        000800  00001A  00081A      1000       0  STRING      2
                clrtext                        000CFA  000008  000D02      19F4       0  CODE        2
                text25                         000D02  000011  000D13      1A04       0  CODE        2
                text21                         000D13  000011  000D24      1A26       0  CODE        2
                text15                         000D24  000011  000D35      1A48       0  CODE        2
                text23                         000D35  000013  000D48      1A6A       0  CODE        2
                inittext                       000D48  000013  000D5B      1A90       0  CODE        2
                text24                         000D5B  000017  000D72      1AB6       0  CODE        2
                text13                         000D72  000017  000D89      1AE4       0  CODE        2
                text22                         000D89  00001D  000DA6      1B12       0  CODE        2
                idataBANK3                     000DA6  00001D  000DC3      1B4C       0  CODE        2
                text1                          000DC3  00001F  000DE2      1B86       0  CODE        2
                text9                          000DE2  000025  000E07      1BC4       0  CODE        2
                text2                          000E07  000029  000E30      1C0E       0  CODE        2
                text14                         000E30  00002A  000E5A      1C60       0  CODE        2
                text7                          000E5A  000044  000E9E      1CB4       0  CODE        2
                text19                         000E9E  000058  000EF6      1D3C       0  CODE        2
                text8                          000EF6  000058  000F4E      1DEC       0  CODE        2
                text16                         000F4E  000059  000FA7      1E9C       0  CODE        2
                maintext                       000FA7  000059  001000      1F4E       0  CODE        2


UNUSED ADDRESS RANGES

        Name                Unused          Largest block    Delta
        BANK0            0063-006F              D           1
        BANK1            00DE-00EF             12           1
        BANK2            0110-016F             60           1
        BANK3            01DF-01EF             11           1
        CODE             0003-0008              6           2
                         081A-0CF9            4E0
                         1000-1FFF            800
        CONST            0003-0008              6           2
                         081A-0CF9            100
                         1000-1FFF            100
        EEDATA           2100-21FF            100           2
        ENTRY            0003-0008              6           2
                         081A-0CF9            100
                         1000-1FFF            100
        IDLOC            2000-2003              4           2
        RAM              0063-006F              D           1
                         00DE-00EF             12
                         0110-016F             60
                         01DF-01EF             11
        SFR0             0000-001F             20           1
        SFR1             0080-009F             20           1
        SFR2             0100-010F             10           1
        SFR3             0180-018F             10           1
        STRCODE          0003-0008              6           2
                         081A-0CF9            4E0
                         1000-1FFF           1000
        STRING           0003-0008              6           2
                         081A-0CF9            100
                         1000-1FFF            100

                                  Symbol Table

?___awdiv                   cstackCOMMON 0070
?___awmod                   cstackCOMMON 0070
?___lwdiv                   cstackCOMMON 0070
?___lwmod                   cstackCOMMON 0070
?___wmul                    cstackCOMMON 0070
?_abs                       cstackCOMMON 0076
?_ctoa                      cstackCOMMON 0078
?_dtoa                      cstackBANK0  0028
?_otoa                      cstackBANK0  0028
?_pad                       cstackCOMMON 007B
?_read_prec_or_width        cstackCOMMON 0076
?_sprintf                   cstackBANK0  0047
?_strlen                    cstackCOMMON 0070
?_utoa                      cstackBANK0  0028
?_vfpfcnvrt                 cstackBANK0  0037
?_vfprintf                  cstackBANK0  0043
?_xtoa                      cstackBANK0  0028
EUSART_Read@status          cstackCOMMON 0072
EUSART_Write@data           cstackCOMMON 0070
EUSART_WriteString@data     cstackCOMMON 0071
_EUSART_Init                text25       0D02
_EUSART_Read                text24       0D5B
_EUSART_Write               text23       0D35
_EUSART_WriteString         text22       0D89
_OSCCONbits                 (abs)        008F
_PIR1bits                   (abs)        000C
_RCREG                      (abs)        001A
_RCSTA                      (abs)        0018
_RCSTAbits                  (abs)        0018
_SPBRG                      (abs)        0099
_TRISCbits                  (abs)        0087
_TXREG                      (abs)        0019
_TXSTAbits                  (abs)        0098
__H__absolute__             __absolute__ 0000
__Habs1                     abs1         0000
__Hbank0                    bank0        0000
__Hbank1                    bank1        0000
__Hbank2                    bank2        0000
__Hbank3                    bank3        0000
__HbssBANK0                 bssBANK0     0000
__HbssBANK1                 bssBANK1     0000
__HbssBANK3                 bssBANK3     0000
__Hcinit                    cinit        0800
__Hclrtext                  clrtext      0000
__Hcode                     code         0000
__Hcommon                   common       0000
__Hconfig                   config       2009
__HcstackBANK0              cstackBANK0  0000
__HcstackBANK1              cstackBANK1  0000
__HcstackCOMMON             cstackCOMMON 0000
__HdataBANK3                dataBANK3    0000
__Heeprom_data              eeprom_data  0000
__Hend_init                 end_init     0003
__Hfunctab                  functab      0000
__Hheap                     heap         0000
__HidataBANK3               idataBANK3   0000
__Hinit                     init         0000
__Hinittext                 inittext     0000
__Hintentry                 intentry     0000
__Hmaintext                 maintext     0000
__Hpowerup                  powerup      0000
__Hram                      ram          0000
__Hreset_vec                reset_vec    0000
__Hsfr0                     sfr0         0000
__Hsfr1                     sfr1         0000
__Hsfr2                     sfr2         0000
__Hsfr3                     sfr3         0000
__Hsivt                     sivt         0000
__Hspace_0                  (abs)        1000
__Hspace_1                  (abs)        01DF
__Hspace_2                  (abs)        0000
__Hspace_3                  (abs)        0000
__Hspace_4                  (abs)        4010
__Hstack                    stack        0000
__Hstrings                  strings      0000
__Htext                     text         0000
__L__absolute__             __absolute__ 0000
__Labs1                     abs1         0000
__Lbank0                    bank0        0000
__Lbank1                    bank1        0000
__Lbank2                    bank2        0000
__Lbank3                    bank3        0000
__LbssBANK0                 bssBANK0     0000
__LbssBANK1                 bssBANK1     0000
__LbssBANK3                 bssBANK3     0000
__Lcinit                    cinit        07D6
__Lclrtext                  clrtext      0000
__Lcode                     code         0000
__Lcommon                   common       0000
__Lconfig                   config       0000
__LcstackBANK0              cstackBANK0  0000
__LcstackBANK1              cstackBANK1  0000
__LcstackCOMMON             cstackCOMMON 0000
__LdataBANK3                dataBANK3    0000
__Leeprom_data              eeprom_data  0000
__Lend_init                 end_init     0000
__Lfunctab                  functab      0000
__Lheap                     heap         0000
__LidataBANK3               idataBANK3   0000
__Linit                     init         0000
__Linittext                 inittext     0000
__Lintentry                 intentry     0000
__Lmaintext                 maintext     0000
__Lpowerup                  powerup      0000
__Lram                      ram          0000
__Lreset_vec                reset_vec    0000
__Lsfr0                     sfr0         0000
__Lsfr1                     sfr1         0000
__Lsfr2                     sfr2         0000
__Lsfr3                     sfr3         0000
__Lsivt                     sivt         0000
__Lspace_0                  (abs)        0000
__Lspace_1                  (abs)        0000
__Lspace_2                  (abs)        0000
__Lspace_3                  (abs)        0000
__Lspace_4                  (abs)        0000
__Lstack                    stack        0000
__Lstrings                  strings      0000
__Ltext                     text         0000
__S0                        (abs)        1000
__S1                        (abs)        01DF
__S3                        (abs)        0000
___awdiv                    text17       009E
___awdiv@counter            cstackCOMMON 0074
___awdiv@dividend           cstackCOMMON 0072
___awdiv@divisor            cstackCOMMON 0070
___awdiv@quotient           cstackCOMMON 0076
___awdiv@sign               cstackCOMMON 0075
___awmod                    text16       0F4E
___awmod@counter            cstackCOMMON 0074
___awmod@dividend           cstackCOMMON 0072
___awmod@divisor            cstackCOMMON 0070
___awmod@sign               cstackCOMMON 0075
___heap_hi                  (abs)        0000
___heap_lo                  (abs)        0000
___int_sp                   stack        0000
___int_stack_hi             stack        0000
___int_stack_lo             stack        0000
___latbits                  (abs)        0002
___lwdiv                    text7        0E5A
___lwdiv@counter            cstackCOMMON 0076
___lwdiv@dividend           cstackCOMMON 0072
___lwdiv@divisor            cstackCOMMON 0070
___lwdiv@quotient           cstackCOMMON 0074
___lwmod                    text6        000A
___lwmod@counter            cstackCOMMON 0074
___lwmod@dividend           cstackCOMMON 0072
___lwmod@divisor            cstackCOMMON 0070
___sp                       stack        0000
___stack_hi                 stack        0000
___stack_lo                 stack        0000
___stackhi                  (abs)        0000
___stacklo                  (abs)        0000
___wmul                     text9        0DE2
___wmul@multiplicand        cstackCOMMON 0072
___wmul@multiplier          cstackCOMMON 0070
___wmul@product             cstackCOMMON 0074
__end_of_EUSART_Init        text25       0D13
__end_of_EUSART_Read        text24       0D72
__end_of_EUSART_Write       text23       0D48
__end_of_EUSART_WriteString text22       0DA6
__end_of___awdiv            text17       0105
__end_of___awmod            text16       0FA7
__end_of___lwdiv            text7        0E9E
__end_of___lwmod            text6        0044
__end_of___wmul             text9        0E07
__end_of__initialization    cinit        07FC
__end_of__stringtab         strings      0806
__end_of_abs                text15       0D35
__end_of_bufclean           text21       0D24
__end_of_ctoa               text18       017B
__end_of_dtoa               text11       04D8
__end_of_fputc              text19       0EF6
__end_of_fputs              text14       0E5A
__end_of_main               maintext     1000
__end_of_otoa               text10       02E5
__end_of_pad                text12       009E
__end_of_putch              text20       000A
__end_of_read_prec_or_width text8        0F4E
__end_of_sprintf            text1        0DE2
__end_of_strlen             text13       0D89
__end_of_utoa               text5        0221
__end_of_vfpfcnvrt          text3        07D6
__end_of_vfprintf           text2        0E30
__end_of_xtoa               text4        03DC
__initialization            cinit        07D6
__pbssBANK0                 bssBANK0     005C
__pbssBANK1                 bssBANK1     00A0
__pbssBANK3                 bssBANK3     0190
__pcstackBANK0              cstackBANK0  0020
__pcstackBANK1              cstackBANK1  00C1
__pcstackCOMMON             cstackCOMMON 0070
__pdataBANK3                dataBANK3    01C2
__pidataBANK3               idataBANK3   0DA6
__pmaintext                 maintext     0FA7
__pstrings                  strings      0800
__ptext1                    text1        0DC3
__ptext10                   text10       0221
__ptext11                   text11       03DC
__ptext12                   text12       0044
__ptext13                   text13       0D72
__ptext14                   text14       0E30
__ptext15                   text15       0D24
__ptext16                   text16       0F4E
__ptext17                   text17       009E
__ptext18                   text18       0105
__ptext19                   text19       0E9E
__ptext2                    text2        0E07
__ptext20                   text20       0009
__ptext21                   text21       0D13
__ptext22                   text22       0D89
__ptext23                   text23       0D35
__ptext24                   text24       0D5B
__ptext25                   text25       0D02
__ptext3                    text3        04D8
__ptext4                    text4        02E5
__ptext5                    text5        017B
__ptext6                    text6        000A
__ptext7                    text7        0E5A
__ptext8                    text8        0EF6
__ptext9                    text9        0DE2
__stringbase                strings      0805
__stringtab                 strings      0800
_abs                        text15       0D24
_bufclean                   text21       0D13
_ctoa                       text18       0105
_dataRx                     bssBANK1     00A0
_dataTx                     bssBANK3     0190
_dbuf                       bssBANK1     00A1
_dtoa                       text11       03DC
_dtoa$774                   cstackBANK0  002A
_flags                      bssBANK0     0062
_fputc                      text19       0E9E
_fputs                      text14       0E30
_main                       maintext     0FA7
_nout                       bssBANK0     005C
_otoa                       text10       0221
_pad                        text12       0044
_prec                       bssBANK0     0060
_putch                      text20       0009
_read_prec_or_width         text8        0EF6
_sprintf                    text1        0DC3
_strlen                     text13       0D72
_utoa                       text5        017B
_vfpfcnvrt                  text3        04D8
_vfprintf                   text2        0E07
_width                      bssBANK0     005E
_xtoa                       text4        02E5
_xtoa$799                   cstackBANK0  002B
abs@a                       cstackCOMMON 0076
btemp                       (abs)        007E
bufclean@i                  cstackCOMMON 0070
clear_ram0                  clrtext      0CFA
ctoa@c                      cstackCOMMON 0078
ctoa@fp                     cstackBANK0  0024
ctoa@l                      cstackBANK0  0020
ctoa@w                      cstackBANK0  0022
dtoa@d                      cstackBANK0  0028
dtoa@fp                     cstackBANK0  002C
dtoa@i                      cstackBANK0  0032
dtoa@p                      cstackBANK0  002D
dtoa@s                      cstackBANK0  0031
dtoa@w                      cstackBANK0  002F
end_of_initialization       cinit        07FC
fputc@c                     cstackCOMMON 0070
fputc@fp                    cstackCOMMON 0072
fputs@c                     cstackBANK0  0020
fputs@fp                    cstackCOMMON 0078
fputs@i                     cstackBANK0  0021
fputs@s                     cstackBANK0  0023
init_fetch0                 inittext     0D48
init_ram0                   inittext     0D4C
intlevel0                   functab      0000
intlevel1                   functab      0000
intlevel2                   functab      0000
intlevel3                   functab      0000
intlevel4                   functab      0000
intlevel5                   functab      0000
main@F1753                  dataBANK3    01C2
main@message                cstackBANK1  00C1
otoa@d                      cstackBANK0  0028
otoa@fp                     cstackBANK0  002C
otoa@i                      cstackBANK0  0032
otoa@p                      cstackBANK0  002D
otoa@t                      cstackBANK0  0031
otoa@w                      cstackBANK0  002F
pad@buf                     cstackCOMMON 007B
pad@fp                      cstackBANK0  0027
pad@i                       cstackBANK0  0025
pad@p                       cstackCOMMON 007C
read_prec_or_width@ap       cstackCOMMON 0076
read_prec_or_width@c        cstackCOMMON 0078
read_prec_or_width@fmt      cstackCOMMON 007B
read_prec_or_width@n        cstackCOMMON 0079
reset_vec                   reset_vec    0000
sprintf@ap                  cstackBANK0  0057
sprintf@f                   cstackBANK0  004C
sprintf@fmt                 cstackBANK0  0047
sprintf@s                   cstackBANK0  004B
start                       init         0000
start_initialization        cinit        07D6
strlen@a                    cstackCOMMON 0072
strlen@s                    cstackCOMMON 0073
utoa@d                      cstackBANK0  0028
utoa@fp                     cstackBANK0  002A
utoa@i                      cstackBANK0  002F
utoa@p                      cstackBANK0  002B
utoa@w                      cstackBANK0  002D
vfpfcnvrt@ap                cstackBANK0  0038
vfpfcnvrt@c                 cstackBANK0  0040
vfpfcnvrt@convarg           cstackBANK0  003C
vfpfcnvrt@cp                cstackBANK0  0042
vfpfcnvrt@done              cstackBANK0  003B
vfpfcnvrt@fmt               cstackBANK0  0037
vfpfcnvrt@fp                cstackBANK0  0041
vfprintf@ap                 cstackBANK0  0044
vfprintf@cfmt               cstackBANK0  0046
vfprintf@fmt                cstackBANK0  0043
vfprintf@fp                 cstackBANK0  0045
wtemp0                      (abs)        007E
xtoa@a                      cstackBANK0  002D
xtoa@c                      cstackBANK0  0034
xtoa@d                      cstackBANK0  0028
xtoa@d_nonzero              cstackBANK0  0033
xtoa@fp                     cstackBANK0  002E
xtoa@i                      cstackBANK0  0035
xtoa@p                      cstackBANK0  002F
xtoa@w                      cstackBANK0  0031
xtoa@x                      cstackBANK0  002A


MODULE INFORMATION

Module		Function		Class		Link	Load	Size
C:\Tools\Microchip\xc8\v2.46\pic\sources\c99\common\lwmod.c
		___lwmod       		CODE           	000A	0000	58

C:\Tools\Microchip\xc8\v2.46\pic\sources\c99\common\lwmod.c estimated size: 58

C:\Tools\Microchip\xc8\v2.46\pic\sources\c99\common\abs.c
		_abs           		CODE           	0D24	0000	17

C:\Tools\Microchip\xc8\v2.46\pic\sources\c99\common\abs.c estimated size: 17

C:\Tools\Microchip\xc8\v2.46\pic\sources\c99\common\awmod.c
		___awmod       		CODE           	0F4E	0000	89

C:\Tools\Microchip\xc8\v2.46\pic\sources\c99\common\awmod.c estimated size: 89

C:\Tools\Microchip\xc8\v2.46\pic\sources\c99\common\putch.c
		_putch         		CODE           	0009	0000	1

C:\Tools\Microchip\xc8\v2.46\pic\sources\c99\common\putch.c estimated size: 1

C:\Tools\Microchip\xc8\v2.46\pic\sources\c99\common\strlen.c
		_strlen        		CODE           	0D72	0000	23

C:\Tools\Microchip\xc8\v2.46\pic\sources\c99\common\strlen.c estimated size: 23

C:\Tools\Microchip\xc8\v2.46\pic\sources\c99\common\lwdiv.c
		___lwdiv       		CODE           	0E5A	0000	68

C:\Tools\Microchip\xc8\v2.46\pic\sources\c99\common\lwdiv.c estimated size: 68

C:\Tools\Microchip\xc8\v2.46\pic\sources\c99\common\awdiv.c
		___awdiv       		CODE           	009E	0000	103

C:\Tools\Microchip\xc8\v2.46\pic\sources\c99\common\awdiv.c estimated size: 103

C:\Tools\Microchip\xc8\v2.46\pic\sources\c99\common\nf_fputs.c
		_fputs         		CODE           	0E30	0000	42

C:\Tools\Microchip\xc8\v2.46\pic\sources\c99\common\nf_fputs.c estimated size: 42

C:\Tools\Microchip\xc8\v2.46\pic\sources\c99\common\doprnt.c
		_read_prec_or_width		CODE           	0EF6	0000	88
		_vfpfcnvrt     		CODE           	04D8	0000	766
		_pad           		CODE           	0044	0000	90
		_ctoa          		CODE           	0105	0000	118
		_dtoa          		CODE           	03DC	0000	252
		_vfprintf      		CODE           	0E07	0000	41
		_otoa          		CODE           	0221	0000	196
		_utoa          		CODE           	017B	0000	166
		_xtoa          		CODE           	02E5	0000	247

C:\Tools\Microchip\xc8\v2.46\pic\sources\c99\common\doprnt.c estimated size: 1964

shared
		__stringtab    		STRING         	0800	0000	6
		__initialization		CODE           	07D6	0000	38

shared estimated size: 44

C:\Tools\Microchip\xc8\v2.46\pic\sources\c99\common\nf_sprintf.c
		_sprintf       		CODE           	0DC3	0000	31

C:\Tools\Microchip\xc8\v2.46\pic\sources\c99\common\nf_sprintf.c estimated size: 31

C:\Tools\Microchip\xc8\v2.46\pic\sources\c99\common\Umul16.c
		___wmul        		CODE           	0DE2	0000	37

C:\Tools\Microchip\xc8\v2.46\pic\sources\c99\common\Umul16.c estimated size: 37

main.c
		_EUSART_Read   		CODE           	0D5B	0000	23
		_EUSART_Init   		CODE           	0D02	0000	17
		_EUSART_Write  		CODE           	0D35	0000	19
		_main          		CODE           	0FA7	0000	89
		_bufclean      		CODE           	0D13	0000	17
		_EUSART_WriteString		CODE           	0D89	0000	29

main.c estimated size: 194

C:\Tools\Microchip\xc8\v2.46\pic\sources\c99\common\nf_fputc.c
		_fputc         		CODE           	0E9E	0000	88

C:\Tools\Microchip\xc8\v2.46\pic\sources\c99\common\nf_fputc.c estimated size: 88

