

Microchip MPLAB XC8 Assembler V2.46 build 20240104201356 
                                                                                               Tue Sep 17 13:09:37 2024

Microchip MPLAB XC8 C Compiler v2.46 (Free license) build 20240104201356 Og1 
     1                           	processor	16F887
     2                           	pagewidth 120
     3                           	opt	flic
     4                           	psect	cinit,global,class=CODE,merge=1,delta=2
     5                           	psect	cstackCOMMON,global,class=COMMON,space=1,delta=1,noexec
     6                           	psect	maintext,global,class=CODE,split=1,delta=2
     7                           	psect	config,global,abs,ovrld,class=CONFIG,space=4,delta=2,noexec
     8                           	dabs	1,0x7E,2
     9     0000                     
    10                           ; Generated 12/10/2023 GMT
    11                           ; 
    12                           ; Copyright © 2023, Microchip Technology Inc. and its subsidiaries ("Microchip")
    13                           ; All rights reserved.
    14                           ; 
    15                           ; This software is developed by Microchip Technology Inc. and its subsidiaries ("Microch
      +                          ip").
    16                           ; 
    17                           ; Redistribution and use in source and binary forms, with or without modification, are
    18                           ; permitted provided that the following conditions are met:
    19                           ; 
    20                           ;     1. Redistributions of source code must retain the above copyright notice, this lis
      +                          t of
    21                           ;        conditions and the following disclaimer.
    22                           ; 
    23                           ;     2. Redistributions in binary form must reproduce the above copyright notice, this 
      +                          list
    24                           ;        of conditions and the following disclaimer in the documentation and/or other
    25                           ;        materials provided with the distribution. Publication is not required when
    26                           ;        this file is used in an embedded application.
    27                           ; 
    28                           ;     3. Microchip's name may not be used to endorse or promote products derived from th
      +                          is
    29                           ;        software without specific prior written permission.
    30                           ; 
    31                           ; THIS SOFTWARE IS PROVIDED BY MICROCHIP "AS IS" AND ANY EXPRESS OR IMPLIED WARRANTIES,
    32                           ; INCLUDING, BUT NOT LIMITED TO, THE IMPLIED WARRANTIES OF MERCHANTABILITY AND FITNESS F
      +                          OR
    33                           ; PURPOSE ARE DISCLAIMED.  IN NO EVENT SHALL MICROCHIP BE LIABLE FOR ANY DIRECT, INDIREC
      +                          T,
    34                           ; INCIDENTAL, SPECIAL, EXEMPLARY, OR CONSEQUENTIAL DAMAGES (INCLUDING BUT NOT LIMITED TO
    35                           ; PROCUREMENT OF SUBSTITUTE GOODS OR SERVICES; LOSS OF USE, DATA OR PROFITS; OR BUSINESS
    36                           ; INTERRUPTION) HOWSOEVER CAUSED AND ON ANY THEORY OF LIABILITY, WHETHER IN CONTRACT, ST
      +                          RICT
    37                           ; LIABILITY, OR TORT (INCLUDING NEGLIGENCE OR OTHERWISE) ARISING IN ANY WAY OUT OF THE U
      +                          SE OF
    38                           ; THIS SOFTWARE, EVEN IF ADVISED OF THE POSSIBILITY OF SUCH DAMAGE.
    39                           ; 
    40                           ; 
    41                           ; Code-generator required, PIC16F887 Definitions
    42                           ; 
    43                           ; SFR Addresses
    44     0000                     	;# 
    45     0001                     	;# 
    46     0002                     	;# 
    47     0003                     	;# 
    48     0004                     	;# 
    49     0005                     	;# 
    50     0006                     	;# 
    51     0007                     	;# 
    52     0008                     	;# 
    53     0009                     	;# 
    54     000A                     	;# 
    55     000B                     	;# 
    56     000C                     	;# 
    57     000D                     	;# 
    58     000E                     	;# 
    59     000E                     	;# 
    60     000F                     	;# 
    61     0010                     	;# 
    62     0011                     	;# 
    63     0012                     	;# 
    64     0013                     	;# 
    65     0014                     	;# 
    66     0015                     	;# 
    67     0015                     	;# 
    68     0016                     	;# 
    69     0017                     	;# 
    70     0018                     	;# 
    71     0019                     	;# 
    72     001A                     	;# 
    73     001B                     	;# 
    74     001B                     	;# 
    75     001C                     	;# 
    76     001D                     	;# 
    77     001E                     	;# 
    78     001F                     	;# 
    79     0081                     	;# 
    80     0085                     	;# 
    81     0086                     	;# 
    82     0087                     	;# 
    83     0088                     	;# 
    84     0089                     	;# 
    85     008C                     	;# 
    86     008D                     	;# 
    87     008E                     	;# 
    88     008F                     	;# 
    89     0090                     	;# 
    90     0091                     	;# 
    91     0092                     	;# 
    92     0093                     	;# 
    93     0093                     	;# 
    94     0093                     	;# 
    95     0094                     	;# 
    96     0095                     	;# 
    97     0096                     	;# 
    98     0097                     	;# 
    99     0098                     	;# 
   100     0099                     	;# 
   101     009A                     	;# 
   102     009B                     	;# 
   103     009C                     	;# 
   104     009D                     	;# 
   105     009E                     	;# 
   106     009F                     	;# 
   107     0105                     	;# 
   108     0107                     	;# 
   109     0108                     	;# 
   110     0109                     	;# 
   111     010C                     	;# 
   112     010C                     	;# 
   113     010D                     	;# 
   114     010E                     	;# 
   115     010F                     	;# 
   116     0185                     	;# 
   117     0187                     	;# 
   118     0188                     	;# 
   119     0189                     	;# 
   120     018C                     	;# 
   121     018D                     	;# 
   122     0000                     	;# 
   123     0001                     	;# 
   124     0002                     	;# 
   125     0003                     	;# 
   126     0004                     	;# 
   127     0005                     	;# 
   128     0006                     	;# 
   129     0007                     	;# 
   130     0008                     	;# 
   131     0009                     	;# 
   132     000A                     	;# 
   133     000B                     	;# 
   134     000C                     	;# 
   135     000D                     	;# 
   136     000E                     	;# 
   137     000E                     	;# 
   138     000F                     	;# 
   139     0010                     	;# 
   140     0011                     	;# 
   141     0012                     	;# 
   142     0013                     	;# 
   143     0014                     	;# 
   144     0015                     	;# 
   145     0015                     	;# 
   146     0016                     	;# 
   147     0017                     	;# 
   148     0018                     	;# 
   149     0019                     	;# 
   150     001A                     	;# 
   151     001B                     	;# 
   152     001B                     	;# 
   153     001C                     	;# 
   154     001D                     	;# 
   155     001E                     	;# 
   156     001F                     	;# 
   157     0081                     	;# 
   158     0085                     	;# 
   159     0086                     	;# 
   160     0087                     	;# 
   161     0088                     	;# 
   162     0089                     	;# 
   163     008C                     	;# 
   164     008D                     	;# 
   165     008E                     	;# 
   166     008F                     	;# 
   167     0090                     	;# 
   168     0091                     	;# 
   169     0092                     	;# 
   170     0093                     	;# 
   171     0093                     	;# 
   172     0093                     	;# 
   173     0094                     	;# 
   174     0095                     	;# 
   175     0096                     	;# 
   176     0097                     	;# 
   177     0098                     	;# 
   178     0099                     	;# 
   179     009A                     	;# 
   180     009B                     	;# 
   181     009C                     	;# 
   182     009D                     	;# 
   183     009E                     	;# 
   184     009F                     	;# 
   185     0105                     	;# 
   186     0107                     	;# 
   187     0108                     	;# 
   188     0109                     	;# 
   189     010C                     	;# 
   190     010C                     	;# 
   191     010D                     	;# 
   192     010E                     	;# 
   193     010F                     	;# 
   194     0185                     	;# 
   195     0187                     	;# 
   196     0188                     	;# 
   197     0189                     	;# 
   198     018C                     	;# 
   199     018D                     	;# 
   200     0006                     _PORTBbits	set	6
   201     0086                     _TRISBbits	set	134
   202     008F                     _OSCCONbits	set	143
   203     0189                     _ANSELHbits	set	393
   204                           
   205                           	psect	cinit
   206     07FC                     start_initialization:	
   207                           ; #config settings
   208                           
   209     07FC                     __initialization:
   210     07FC                     end_of_initialization:	
   211                           ;End of C runtime variable initialization code
   212                           
   213     07FC                     __end_of__initialization:
   214     07FC  0183               	clrf	3
   215     07FD  120A  118A  2FD2   	ljmp	_main	;jump to C main() function
   216                           
   217                           	psect	cstackCOMMON
   218     0071                     __pcstackCOMMON:
   219     0071                     ?_main:
   220     0071                     ??_main:	
   221                           ; 1 bytes @ 0x0
   222                           
   223                           
   224                           ; 1 bytes @ 0x0
   225     0071                     	ds	3
   226                           
   227                           	psect	maintext
   228     07D2                     __pmaintext:	
   229 ;;
   230 ;;Main: autosize = 0, tempsize = 3, incstack = 0, save=0
   231 ;;
   232 ;; *************** function _main *****************
   233 ;; Defined at:
   234 ;;		line 36 in file "main.c"
   235 ;; Parameters:    Size  Location     Type
   236 ;;		None
   237 ;; Auto vars:     Size  Location     Type
   238 ;;		None
   239 ;; Return value:  Size  Location     Type
   240 ;;                  1    wreg      void 
   241 ;; Registers used:
   242 ;;		wreg, status,2, status,0, btemp+1
   243 ;; Tracked objects:
   244 ;;		On entry : B00/0
   245 ;;		On exit  : 0/0
   246 ;;		Unchanged: 0/0
   247 ;; Data sizes:     COMMON   BANK0   BANK1   BANK3   BANK2
   248 ;;      Params:         0       0       0       0       0
   249 ;;      Locals:         0       0       0       0       0
   250 ;;      Temps:          3       0       0       0       0
   251 ;;      Totals:         3       0       0       0       0
   252 ;;Total ram usage:        3 bytes
   253 ;; This function calls:
   254 ;;		Nothing
   255 ;; This function is called by:
   256 ;;		Startup code after reset
   257 ;; This function uses a non-reentrant model
   258 ;;
   259                           
   260     07D2                     _main:	
   261                           ;psect for function _main
   262                           
   263     07D2                     l562:	
   264                           ;incstack = 0
   265                           ; Regs used in _main: [wreg+status,2+status,0+btemp+1]
   266                           
   267     07D2  3070               	movlw	112
   268     07D3  1683               	bsf	3,5	;RP0=1, select bank1
   269     07D4  1303               	bcf	3,6	;RP1=0, select bank1
   270     07D5  048F               	iorwf	15,f	;volatile
   271     07D6                     l564:
   272     07D6  1283               	bcf	3,5	;RP0=0, select bank0
   273     07D7  1303               	bcf	3,6	;RP1=0, select bank0
   274     07D8  1006               	bcf	6,0	;volatile
   275     07D9                     l566:
   276     07D9  1683               	bsf	3,5	;RP0=1, select bank1
   277     07DA  1303               	bcf	3,6	;RP1=0, select bank1
   278     07DB  1006               	bcf	6,0	;volatile
   279     07DC                     l568:
   280     07DC  1683               	bsf	3,5	;RP0=1, select bank3
   281     07DD  1703               	bsf	3,6	;RP1=1, select bank3
   282     07DE  1209               	bcf	9,4	;volatile
   283     07DF                     l570:
   284     07DF  1283               	bcf	3,5	;RP0=0, select bank0
   285     07E0  1303               	bcf	3,6	;RP1=0, select bank0
   286     07E1  0806               	movf	6,w	;volatile
   287     07E2  3901               	andlw	1
   288     07E3  00FF               	movwf	btemp+1
   289     07E4  3001               	movlw	1
   290     07E5  06FF               	xorwf	btemp+1,f
   291     07E6  0806               	movf	6,w	;volatile
   292     07E7  067F               	xorwf	btemp+1,w
   293     07E8  39FE               	andlw	-2
   294     07E9  067F               	xorwf	btemp+1,w
   295     07EA  0086               	movwf	6	;volatile
   296     07EB                     l572:
   297     07EB  3006               	movlw	6
   298     07EC  00F3               	movwf	??_main+2
   299     07ED  3013               	movlw	19
   300     07EE  00F2               	movwf	??_main+1
   301     07EF  30AD               	movlw	173
   302     07F0  00F1               	movwf	??_main
   303     07F1                     u17:
   304     07F1  0BF1               	decfsz	??_main,f
   305     07F2  2FF1               	goto	u17
   306     07F3  0BF2               	decfsz	??_main+1,f
   307     07F4  2FF1               	goto	u17
   308     07F5  0BF3               	decfsz	??_main+2,f
   309     07F6  2FF1               	goto	u17
   310     07F7  2FF8               	nop2
   311     07F8  2FDF               	goto	l570
   312     07F9  120A  118A  2801   	ljmp	start
   313     07FC                     __end_of_main:
   314     007E                     btemp	set	126	;btemp
   315     007E                     wtemp0	set	126
   316                           
   317                           	psect	config
   318                           
   319                           ;Config register CONFIG1 @ 0x2007
   320                           ;	Oscillator Selection bits
   321                           ;	FOSC = INTRC_NOCLKOUT, INTOSCIO oscillator: I/O function on RA6/OSC2/CLKOUT pin, I/O f
      +                          unction on RA7/OSC1/CLKIN
   322                           ;	Watchdog Timer Enable bit
   323                           ;	WDTE = OFF, WDT disabled and can be enabled by SWDTEN bit of the WDTCON register
   324                           ;	Power-up Timer Enable bit
   325                           ;	PWRTE = ON, PWRT enabled
   326                           ;	RE3/MCLR pin function select bit
   327                           ;	MCLRE = OFF, RE3/MCLR pin function is digital input, MCLR internally tied to VDD
   328                           ;	Code Protection bit
   329                           ;	CP = OFF, Program memory code protection is disabled
   330                           ;	Data Code Protection bit
   331                           ;	CPD = OFF, Data memory code protection is disabled
   332                           ;	Brown Out Reset Selection bits
   333                           ;	BOREN = ON, BOR enabled
   334                           ;	Internal External Switchover bit
   335                           ;	IESO = ON, Internal/External Switchover mode is enabled
   336                           ;	Fail-Safe Clock Monitor Enabled bit
   337                           ;	FCMEN = ON, Fail-Safe Clock Monitor is enabled
   338                           ;	Low Voltage Programming Enable bit
   339                           ;	LVP = OFF, RB3 pin has digital I/O, HV on MCLR must be used for programming
   340                           ;	In-Circuit Debugger Mode bit
   341                           ;	DEBUG = 0x1, unprogrammed default
   342     2007                     	org	8199
   343     2007  2FC4               	dw	12228
   344                           
   345                           ;Config register CONFIG2 @ 0x2008
   346                           ;	Brown-out Reset Selection bit
   347                           ;	BOR4V = BOR21V, Brown-out Reset set to 2.1V
   348                           ;	Flash Program Memory Self Write Enable bits
   349                           ;	WRT = OFF, Write protection off
   350     2008                     	org	8200
   351     2008  3EFF               	dw	16127

Data Sizes:
    Strings     0
    Constant    0
    Data        0
    BSS         0
    Persistent  0
    Stack       0

Auto Spaces:
    Space          Size  Autos    Used
    COMMON           13      3       3
    BANK0            80      0       0
    BANK1            80      0       0
    BANK3            85      0       0
    BANK2            96      0       0

Pointer List with Targets:

    None.

Critical Paths under _main in COMMON

    None.

Critical Paths under _main in BANK0

    None.

Critical Paths under _main in BANK1

    None.

Critical Paths under _main in BANK3

    None.

Critical Paths under _main in BANK2

    None.

Call Graph Tables:

 ---------------------------------------------------------------------------------
 (Depth) Function   	        Calls       Base Space   Used Autos Params    Refs
 ---------------------------------------------------------------------------------
 (0) _main                                                 3     3      0       0
                                              0 COMMON     3     3      0
 ---------------------------------------------------------------------------------
 Estimated maximum stack depth 0
 ---------------------------------------------------------------------------------

 Call Graph Graphs:

 _main (ROOT)

 Address spaces:
Name               Size   Autos  Total    Cost      Usage
BITCOMMON            D      0       0       0        0.0%
EEDATA             100      0       0       0        0.0%
NULL                 0      0       0       0        0.0%
CODE                 0      0       0       0        0.0%
COMMON               D      3       3       1       23.1%
BITSFR0              0      0       0       1        0.0%
SFR0                 0      0       0       1        0.0%
BITSFR1              0      0       0       2        0.0%
SFR1                 0      0       0       2        0.0%
STACK                0      0       0       2        0.0%
ABS                  0      0       0       3        0.0%
BITBANK0            50      0       0       4        0.0%
BITSFR3              0      0       0       4        0.0%
SFR3                 0      0       0       4        0.0%
BANK0               50      0       0       5        0.0%
BITSFR2              0      0       0       5        0.0%
SFR2                 0      0       0       5        0.0%
BITBANK1            50      0       0       6        0.0%
BANK1               50      0       0       7        0.0%
BITBANK3            55      0       0       8        0.0%
BANK3               55      0       0       9        0.0%
BITBANK2            60      0       0      10        0.0%
BANK2               60      0       0      11        0.0%
DATA                 0      0       0      12        0.0%


Microchip Technology PIC Macro Assembler V2.46 build 20240104201356 
Symbol Table                                                                                   Tue Sep 17 13:09:37 2024

                     u17 07F1                      l570 07DF                      l562 07D2  
                    l572 07EB                      l564 07D6                      l566 07D9  
                    l568 07DC                     _main 07D2                     btemp 007E  
                   start 0001                    ?_main 0071                    status 0003  
                  wtemp0 007E          __initialization 07FC             __end_of_main 07FC  
                 ??_main 0071  __end_of__initialization 07FC           __pcstackCOMMON 0071  
             __pmaintext 07D2     end_of_initialization 07FC                _PORTBbits 0006  
              _TRISBbits 0086      start_initialization 07FC                ___latbits 0002  
             _ANSELHbits 0189               _OSCCONbits 008F  
